{
  "contractName": "MembresiaToken",
  "abi": [
    {
      "inputs": [],
      "stateMutability": "nonpayable",
      "type": "constructor"
    },
    {
      "anonymous": false,
      "inputs": [
        {
          "indexed": true,
          "internalType": "address",
          "name": "comprador",
          "type": "address"
        }
      ],
      "name": "Comprado",
      "type": "event"
    },
    {
      "anonymous": false,
      "inputs": [
        {
          "indexed": true,
          "internalType": "address",
          "name": "de",
          "type": "address"
        },
        {
          "indexed": true,
          "internalType": "address",
          "name": "a",
          "type": "address"
        }
      ],
      "name": "Transferido",
      "type": "event"
    },
    {
      "inputs": [
        {
          "internalType": "address",
          "name": "",
          "type": "address"
        }
      ],
      "name": "miembros",
      "outputs": [
        {
          "internalType": "bool",
          "name": "",
          "type": "bool"
        }
      ],
      "stateMutability": "view",
      "type": "function",
      "constant": true
    },
    {
      "inputs": [],
      "name": "owner",
      "outputs": [
        {
          "internalType": "address",
          "name": "",
          "type": "address"
        }
      ],
      "stateMutability": "view",
      "type": "function",
      "constant": true
    },
    {
      "inputs": [],
      "name": "precioToken",
      "outputs": [
        {
          "internalType": "uint256",
          "name": "",
          "type": "uint256"
        }
      ],
      "stateMutability": "view",
      "type": "function",
      "constant": true
    },
    {
      "inputs": [],
      "name": "comprarToken",
      "outputs": [],
      "stateMutability": "payable",
      "type": "function",
      "payable": true
    },
    {
      "inputs": [
        {
          "internalType": "address",
          "name": "_destinatario",
          "type": "address"
        }
      ],
      "name": "transferirMembresia",
      "outputs": [],
      "stateMutability": "nonpayable",
      "type": "function"
    },
    {
      "inputs": [],
      "name": "retirarFondos",
      "outputs": [],
      "stateMutability": "nonpayable",
      "type": "function"
    }
  ],
  "bytecode": "0x608060405234801561001057600080fd5b50336000806101000a81548173ffffffffffffffffffffffffffffffffffffffff021916908373ffffffffffffffffffffffffffffffffffffffff16021790555067016345785d8a00006001819055506107c88061006f6000396000f3fe6080604052600436106100555760003560e01c80638af018801461005a5780638da5cb5b14610071578063d19d680a1461009c578063e537a066146100c7578063ec50026514610104578063f32360a01461012d575b600080fd5b34801561006657600080fd5b5061006f610137565b005b34801561007d57600080fd5b5061008661022e565b6040516100939190610534565b60405180910390f35b3480156100a857600080fd5b506100b1610252565b6040516100be9190610568565b60405180910390f35b3480156100d357600080fd5b506100ee60048036038101906100e991906105b4565b610258565b6040516100fb91906105fc565b60405180910390f35b34801561011057600080fd5b5061012b600480360381019061012691906105b4565b610278565b005b610135610411565b005b60008054906101000a900473ffffffffffffffffffffffffffffffffffffffff1673ffffffffffffffffffffffffffffffffffffffff163373ffffffffffffffffffffffffffffffffffffffff16146101c5576040517f08c379a00000000000000000000000000000000000000000000000000000000081526004016101bc9061069a565b60405180910390fd5b60008054906101000a900473ffffffffffffffffffffffffffffffffffffffff1673ffffffffffffffffffffffffffffffffffffffff166108fc479081150290604051600060405180830381858888f1935050505015801561022b573d6000803e3d6000fd5b50565b60008054906101000a900473ffffffffffffffffffffffffffffffffffffffff1681565b60015481565b60026020528060005260406000206000915054906101000a900460ff1681565b600260003373ffffffffffffffffffffffffffffffffffffffff1673ffffffffffffffffffffffffffffffffffffffff16815260200190815260200160002060009054906101000a900460ff16610304576040517f08c379a00000000000000000000000000000000000000000000000000000000081526004016102fb90610706565b60405180910390fd5b6000600260003373ffffffffffffffffffffffffffffffffffffffff1673ffffffffffffffffffffffffffffffffffffffff16815260200190815260200160002060006101000a81548160ff0219169083151502179055506001600260008373ffffffffffffffffffffffffffffffffffffffff1673ffffffffffffffffffffffffffffffffffffffff16815260200190815260200160002060006101000a81548160ff0219169083151502179055508073ffffffffffffffffffffffffffffffffffffffff163373ffffffffffffffffffffffffffffffffffffffff167f85490c791cc0904c0525a3949f96fa5dd8bbcb669d335958ca044612e54a366160405160405180910390a350565b600154341015610456576040517f08c379a000000000000000000000000000000000000000000000000000000000815260040161044d90610772565b60405180910390fd5b6001600260003373ffffffffffffffffffffffffffffffffffffffff1673ffffffffffffffffffffffffffffffffffffffff16815260200190815260200160002060006101000a81548160ff0219169083151502179055503373ffffffffffffffffffffffffffffffffffffffff167f3ab14a545789630b8115f3d84729f874d0fb037ebc42f95470d121a1226e102d60405160405180910390a2565b600073ffffffffffffffffffffffffffffffffffffffff82169050919050565b600061051e826104f3565b9050919050565b61052e81610513565b82525050565b60006020820190506105496000830184610525565b92915050565b6000819050919050565b6105628161054f565b82525050565b600060208201905061057d6000830184610559565b92915050565b600080fd5b61059181610513565b811461059c57600080fd5b50565b6000813590506105ae81610588565b92915050565b6000602082840312156105ca576105c9610583565b5b60006105d88482850161059f565b91505092915050565b60008115159050919050565b6105f6816105e1565b82525050565b600060208201905061061160008301846105ed565b92915050565b600082825260208201905092915050565b7f536f6c6f20656c2070726f706965746172696f2070756564652072657469726160008201527f7220666f6e646f73000000000000000000000000000000000000000000000000602082015250565b6000610684602883610617565b915061068f82610628565b604082019050919050565b600060208201905081810360008301526106b381610677565b9050919050565b7f4e6f207469656e657320756e20746f6b656e206465206d656d62726573696100600082015250565b60006106f0601f83610617565b91506106fb826106ba565b602082019050919050565b6000602082019050818103600083015261071f816106e3565b9050919050565b7f53616c646f20696e737566696369656e74650000000000000000000000000000600082015250565b600061075c601283610617565b915061076782610726565b602082019050919050565b6000602082019050818103600083015261078b8161074f565b905091905056fea2646970667358221220f8be03f1fc107601cc9f246f9e1afb7bc0d7cff2d314124f96b1b577ef57145464736f6c63430008130033",
  "immutableReferences": {},
  "source": "// SPDX-License-Identifier: MIT\r\npragma solidity 0.8.19;\r\n\r\ncontract MembresiaToken {\r\n    address public owner;\r\n    uint256 public precioToken;\r\n    mapping(address => bool) public miembros;\r\n\r\n    event Comprado(address indexed comprador);\r\n    event Transferido(address indexed de, address indexed a);\r\n\r\n    constructor() {\r\n        owner = msg.sender;\r\n        precioToken = 100000000000000000;\r\n    }\r\n\r\n    function comprarToken() public payable {\r\n        require(msg.value >= precioToken, \"Saldo insuficiente\");\r\n        miembros[msg.sender] = true;\r\n        emit Comprado(msg.sender);\r\n    }\r\n\r\n    function transferirMembresia(address _destinatario) public {\r\n        require(miembros[msg.sender], \"No tienes un token de membresia\");\r\n        miembros[msg.sender] = false;\r\n        miembros[_destinatario] = true;\r\n        emit Transferido(msg.sender, _destinatario);\r\n    }\r\n\r\n    function retirarFondos() public {\r\n        require(msg.sender == owner, \"Solo el propietario puede retirar fondos\");\r\n        payable(owner).transfer(address(this).balance);\r\n    }\r\n}\r\n",
  "sourcePath": "C:\\Users\\TheEnginner\\Desktop\\Tareas 6 Semestre\\BlockChain\\MongoDB Blockchain\\contracts\\MembresiasToken.sol",
  "compiler": {
    "name": "solc",
    "version": "0.8.19+commit.7dd6d404.Emscripten.clang"
  },
  "schemaVersion": "3.4.16",
  "updatedAt": "2025-03-10T16:33:46.976Z",
  "networkType": "ethereum",
  "devdoc": {
    "kind": "dev",
    "methods": {},
    "version": 1
  },
  "userdoc": {
    "kind": "user",
    "methods": {},
    "version": 1
  }
}